{
  "_format": "hh-sol-artifact-1",
  "contractName": "WavePortal",
  "sourceName": "contracts/WavePortal.sol",
  "abi": [
    {
      "inputs": [],
      "stateMutability": "payable",
      "type": "constructor"
    },
    {
      "anonymous": false,
      "inputs": [
        {
          "indexed": true,
          "internalType": "address",
          "name": "from",
          "type": "address"
        },
        {
          "indexed": false,
          "internalType": "uint256",
          "name": "timestamp",
          "type": "uint256"
        },
        {
          "indexed": false,
          "internalType": "string",
          "name": "message",
          "type": "string"
        }
      ],
      "name": "NewWave",
      "type": "event"
    },
    {
      "inputs": [],
      "name": "getAllWaves",
      "outputs": [
        {
          "components": [
            {
              "internalType": "address",
              "name": "waver",
              "type": "address"
            },
            {
              "internalType": "string",
              "name": "message",
              "type": "string"
            },
            {
              "internalType": "uint256",
              "name": "timestamp",
              "type": "uint256"
            }
          ],
          "internalType": "struct WavePortal.Wave[]",
          "name": "",
          "type": "tuple[]"
        }
      ],
      "stateMutability": "view",
      "type": "function"
    },
    {
      "inputs": [],
      "name": "getTotalWaves",
      "outputs": [
        {
          "internalType": "uint256",
          "name": "",
          "type": "uint256"
        }
      ],
      "stateMutability": "view",
      "type": "function"
    },
    {
      "inputs": [],
      "name": "totalWaves",
      "outputs": [
        {
          "internalType": "uint256",
          "name": "",
          "type": "uint256"
        }
      ],
      "stateMutability": "view",
      "type": "function"
    },
    {
      "inputs": [
        {
          "internalType": "string",
          "name": "_message",
          "type": "string"
        }
      ],
      "name": "wave",
      "outputs": [],
      "stateMutability": "nonpayable",
      "type": "function"
    },
    {
      "inputs": [
        {
          "internalType": "uint256",
          "name": "",
          "type": "uint256"
        }
      ],
      "name": "waves",
      "outputs": [
        {
          "internalType": "address",
          "name": "waver",
          "type": "address"
        },
        {
          "internalType": "string",
          "name": "message",
          "type": "string"
        },
        {
          "internalType": "uint256",
          "name": "timestamp",
          "type": "uint256"
        }
      ],
      "stateMutability": "view",
      "type": "function"
    }
  ],
  "bytecode": "0x60806040526200003360405180606001604052806025815260200162001271602591396200003960201b620005fc1760201c565b620001cd565b620000d98160405160240162000050919062000146565b6040516020818303038152906040527f41304fac000000000000000000000000000000000000000000000000000000007bffffffffffffffffffffffffffffffffffffffffffffffffffffffff19166020820180517bffffffffffffffffffffffffffffffffffffffffffffffffffffffff8381831617835250505050620000dc60201b60201c565b50565b60008151905060006a636f6e736f6c652e6c6f679050602083016000808483855afa5050505050565b600062000112826200016a565b6200011e818562000175565b93506200013081856020860162000186565b6200013b81620001bc565b840191505092915050565b6000602082019050818103600083015262000162818462000105565b905092915050565b600081519050919050565b600082825260208201905092915050565b60005b83811015620001a657808201518184015260208101905062000189565b83811115620001b6576000848401525b50505050565b6000601f19601f8301169050919050565b61109480620001dd6000396000f3fe608060405234801561001057600080fd5b50600436106100575760003560e01c8063291bcab31461005c578063449d46c01461007a5780639a2cdc0814610096578063bd43a908146100b4578063c781267a146100d2575b600080fd5b610064610104565b6040516100719190610cbf565b60405180910390f35b610094600480360381019061008f9190610919565b61010a565b005b61009e61037e565b6040516100ab9190610cbf565b60405180910390f35b6100bc6103c9565b6040516100c99190610bc6565b60405180910390f35b6100ec60048036038101906100e7919061095a565b61051a565b6040516100fb93929190610b88565b60405180910390f35b60005481565b600160008082825461011c9190610dd1565b925050819055506101636040518060400160405280601681526020017f257320776176656420772f206d657373616765202573000000000000000000008152503383610695565b600160405180606001604052803373ffffffffffffffffffffffffffffffffffffffff16815260200183815260200142815250908060018154018082558091505060019003906000526020600020906003020160009091909190915060008201518160000160006101000a81548173ffffffffffffffffffffffffffffffffffffffff021916908373ffffffffffffffffffffffffffffffffffffffff16021790555060208201518160010190805190602001906102229291906107f9565b506040820151816002015550503373ffffffffffffffffffffffffffffffffffffffff167f5f7e16dc676677766a70e9c5628aa6c54ddb8b6e5188e2ae1e1f17f1ffbea7164283604051610277929190610cda565b60405180910390a26000655af3107a40009050478111156102cd576040517f08c379a00000000000000000000000000000000000000000000000000000000081526004016102c490610c7f565b60405180910390fd5b60003373ffffffffffffffffffffffffffffffffffffffff16826040516102f390610b73565b60006040518083038185875af1925050503d8060008114610330576040519150601f19603f3d011682016040523d82523d6000602084013e610335565b606091505b5050905080610379576040517f08c379a000000000000000000000000000000000000000000000000000000000815260040161037090610c9f565b60405180910390fd5b505050565b60006103c16040518060400160405280601781526020017f5765206861766520256420746f74616c20776176657321000000000000000000815250600054610734565b600054905090565b60606001805480602002602001604051908101604052809291908181526020016000905b8282101561051157838290600052602060002090600302016040518060600160405290816000820160009054906101000a900473ffffffffffffffffffffffffffffffffffffffff1673ffffffffffffffffffffffffffffffffffffffff1673ffffffffffffffffffffffffffffffffffffffff16815260200160018201805461047690610ea5565b80601f01602080910402602001604051908101604052809291908181526020018280546104a290610ea5565b80156104ef5780601f106104c4576101008083540402835291602001916104ef565b820191906000526020600020905b8154815290600101906020018083116104d257829003601f168201915b50505050508152602001600282015481525050815260200190600101906103ed565b50505050905090565b6001818154811061052a57600080fd5b90600052602060002090600302016000915090508060000160009054906101000a900473ffffffffffffffffffffffffffffffffffffffff169080600101805461057390610ea5565b80601f016020809104026020016040519081016040528092919081815260200182805461059f90610ea5565b80156105ec5780601f106105c1576101008083540402835291602001916105ec565b820191906000526020600020905b8154815290600101906020018083116105cf57829003601f168201915b5050505050908060020154905083565b610692816040516024016106109190610be8565b6040516020818303038152906040527f41304fac000000000000000000000000000000000000000000000000000000007bffffffffffffffffffffffffffffffffffffffffffffffffffffffff19166020820180517bffffffffffffffffffffffffffffffffffffffffffffffffffffffff83818316178352505050506107d0565b50565b61072f8383836040516024016106ad93929190610c0a565b6040516020818303038152906040527fe0e9ad4f000000000000000000000000000000000000000000000000000000007bffffffffffffffffffffffffffffffffffffffffffffffffffffffff19166020820180517bffffffffffffffffffffffffffffffffffffffffffffffffffffffff83818316178352505050506107d0565b505050565b6107cc828260405160240161074a929190610c4f565b6040516020818303038152906040527f9710a9d0000000000000000000000000000000000000000000000000000000007bffffffffffffffffffffffffffffffffffffffffffffffffffffffff19166020820180517bffffffffffffffffffffffffffffffffffffffffffffffffffffffff83818316178352505050506107d0565b5050565b60008151905060006a636f6e736f6c652e6c6f679050602083016000808483855afa5050505050565b82805461080590610ea5565b90600052602060002090601f016020900481019282610827576000855561086e565b82601f1061084057805160ff191683800117855561086e565b8280016001018555821561086e579182015b8281111561086d578251825591602001919060010190610852565b5b50905061087b919061087f565b5090565b5b80821115610898576000816000905550600101610880565b5090565b60006108af6108aa84610d2f565b610d0a565b9050828152602081018484840111156108c757600080fd5b6108d2848285610e63565b509392505050565b600082601f8301126108eb57600080fd5b81356108fb84826020860161089c565b91505092915050565b60008135905061091381611047565b92915050565b60006020828403121561092b57600080fd5b600082013567ffffffffffffffff81111561094557600080fd5b610951848285016108da565b91505092915050565b60006020828403121561096c57600080fd5b600061097a84828501610904565b91505092915050565b600061098f8383610b05565b905092915050565b6109a081610e27565b82525050565b6109af81610e27565b82525050565b60006109c082610d70565b6109ca8185610d93565b9350836020820285016109dc85610d60565b8060005b85811015610a1857848403895281516109f98582610983565b9450610a0483610d86565b925060208a019950506001810190506109e0565b50829750879550505050505092915050565b6000610a3582610d7b565b610a3f8185610daf565b9350610a4f818560208601610e72565b610a5881610f95565b840191505092915050565b6000610a6e82610d7b565b610a788185610dc0565b9350610a88818560208601610e72565b610a9181610f95565b840191505092915050565b6000610aa9603483610dc0565b9150610ab482610fa6565b604082019050919050565b6000610acc602783610dc0565b9150610ad782610ff5565b604082019050919050565b6000610aef600083610da4565b9150610afa82611044565b600082019050919050565b6000606083016000830151610b1d6000860182610997565b5060208301518482036020860152610b358282610a2a565b9150506040830151610b4a6040860182610b55565b508091505092915050565b610b5e81610e59565b82525050565b610b6d81610e59565b82525050565b6000610b7e82610ae2565b9150819050919050565b6000606082019050610b9d60008301866109a6565b8181036020830152610baf8185610a63565b9050610bbe6040830184610b64565b949350505050565b60006020820190508181036000830152610be081846109b5565b905092915050565b60006020820190508181036000830152610c028184610a63565b905092915050565b60006060820190508181036000830152610c248186610a63565b9050610c3360208301856109a6565b8181036040830152610c458184610a63565b9050949350505050565b60006040820190508181036000830152610c698185610a63565b9050610c786020830184610b64565b9392505050565b60006020820190508181036000830152610c9881610a9c565b9050919050565b60006020820190508181036000830152610cb881610abf565b9050919050565b6000602082019050610cd46000830184610b64565b92915050565b6000604082019050610cef6000830185610b64565b8181036020830152610d018184610a63565b90509392505050565b6000610d14610d25565b9050610d208282610ed7565b919050565b6000604051905090565b600067ffffffffffffffff821115610d4a57610d49610f66565b5b610d5382610f95565b9050602081019050919050565b6000819050602082019050919050565b600081519050919050565b600081519050919050565b6000602082019050919050565b600082825260208201905092915050565b600081905092915050565b600082825260208201905092915050565b600082825260208201905092915050565b6000610ddc82610e59565b9150610de783610e59565b9250827fffffffffffffffffffffffffffffffffffffffffffffffffffffffffffffffff03821115610e1c57610e1b610f08565b5b828201905092915050565b6000610e3282610e39565b9050919050565b600073ffffffffffffffffffffffffffffffffffffffff82169050919050565b6000819050919050565b82818337600083830152505050565b60005b83811015610e90578082015181840152602081019050610e75565b83811115610e9f576000848401525b50505050565b60006002820490506001821680610ebd57607f821691505b60208210811415610ed157610ed0610f37565b5b50919050565b610ee082610f95565b810181811067ffffffffffffffff82111715610eff57610efe610f66565b5b80604052505050565b7f4e487b7100000000000000000000000000000000000000000000000000000000600052601160045260246000fd5b7f4e487b7100000000000000000000000000000000000000000000000000000000600052602260045260246000fd5b7f4e487b7100000000000000000000000000000000000000000000000000000000600052604160045260246000fd5b6000601f19601f8301169050919050565b7f547279696e6720746f207769746864726177206d6f7265206d6f6e657920746860008201527f616e2074686520636f6e7472616374206861732e000000000000000000000000602082015250565b7f4661696c656420746f207769746864726177206d6f6e65792066726f6d20636f60008201527f6e74726163742e00000000000000000000000000000000000000000000000000602082015250565b50565b61105081610e59565b811461105b57600080fd5b5056fea264697066735822122092eda95dbe2e014560b7ddca816f72f4103e35f0d04227ee2922799ca3845b9b64736f6c63430008040033596f20796f2c204920616d206120636f6e747261637420616e64204920616d20736d617274",
  "linkReferences": {},
  "deployedLinkReferences": {}
}