{
  "_format": "hh-sol-artifact-1",
  "contractName": "WavePortal",
  "sourceName": "contracts/WavePortal.sol",
  "abi": [
    {
      "inputs": [],
      "stateMutability": "nonpayable",
      "type": "constructor"
    },
    {
      "inputs": [],
      "name": "getTotalWaves",
      "outputs": [
        {
          "internalType": "uint256",
          "name": "",
          "type": "uint256"
        }
      ],
      "stateMutability": "view",
      "type": "function"
    },
    {
      "inputs": [],
      "name": "getWavers",
      "outputs": [
        {
          "internalType": "address[]",
          "name": "",
          "type": "address[]"
        }
      ],
      "stateMutability": "view",
      "type": "function"
    },
    {
      "inputs": [
        {
          "internalType": "address",
          "name": "",
          "type": "address"
        }
      ],
      "name": "hasWave",
      "outputs": [
        {
          "internalType": "bool",
          "name": "",
          "type": "bool"
        }
      ],
      "stateMutability": "view",
      "type": "function"
    },
    {
      "inputs": [],
      "name": "totalWaves",
      "outputs": [
        {
          "internalType": "uint256",
          "name": "",
          "type": "uint256"
        }
      ],
      "stateMutability": "view",
      "type": "function"
    },
    {
      "inputs": [],
      "name": "wave",
      "outputs": [],
      "stateMutability": "nonpayable",
      "type": "function"
    },
    {
      "inputs": [
        {
          "internalType": "uint256",
          "name": "",
          "type": "uint256"
        }
      ],
      "name": "wavers",
      "outputs": [
        {
          "internalType": "address",
          "name": "",
          "type": "address"
        }
      ],
      "stateMutability": "view",
      "type": "function"
    }
  ],
  "bytecode": "0x608060405234801561001057600080fd5b5061003c604051806060016040528060258152602001610bc36025913961004160201b6103d01760201c565b6101c4565b6100dd816040516024016100559190610142565b6040516020818303038152906040527f41304fac000000000000000000000000000000000000000000000000000000007bffffffffffffffffffffffffffffffffffffffffffffffffffffffff19166020820180517bffffffffffffffffffffffffffffffffffffffffffffffffffffffff83818316178352505050506100e060201b60201c565b50565b60008151905060006a636f6e736f6c652e6c6f679050602083016000808483855afa5050505050565b600061011482610164565b61011e818561016f565b935061012e818560208601610180565b610137816101b3565b840191505092915050565b6000602082019050818103600083015261015c8184610109565b905092915050565b600081519050919050565b600082825260208201905092915050565b60005b8381101561019e578082015181840152602081019050610183565b838111156101ad576000848401525b50505050565b6000601f19601f8301169050919050565b6109f0806101d36000396000f3fe608060405234801561001057600080fd5b50600436106100625760003560e01c80632353585a14610067578063291bcab3146100975780633ca736bd146100b5578063635f29f8146100e55780636fe15b44146101035780639a2cdc081461010d575b600080fd5b610081600480360381019061007c91906105f4565b61012b565b60405161008e919061076e565b60405180910390f35b61009f61014b565b6040516100ac919061080b565b60405180910390f35b6100cf60048036038101906100ca919061061d565b610151565b6040516100dc9190610731565b60405180910390f35b6100ed610190565b6040516100fa919061074c565b60405180910390f35b61010b61021e565b005b610115610385565b604051610122919061080b565b60405180910390f35b60026020528060005260406000206000915054906101000a900460ff1681565b60005481565b6001818154811061016157600080fd5b906000526020600020016000915054906101000a900473ffffffffffffffffffffffffffffffffffffffff1681565b6060600180548060200260200160405190810160405280929190818152602001828054801561021457602002820191906000526020600020905b8160009054906101000a900473ffffffffffffffffffffffffffffffffffffffff1673ffffffffffffffffffffffffffffffffffffffff16815260200190600101908083116101ca575b5050505050905090565b6001600080828254610230919061087b565b92505081905550600260003373ffffffffffffffffffffffffffffffffffffffff1673ffffffffffffffffffffffffffffffffffffffff16815260200190815260200160002060009054906101000a900460ff16610344576001339080600181540180825580915050600190039060005260206000200160009091909190916101000a81548173ffffffffffffffffffffffffffffffffffffffff021916908373ffffffffffffffffffffffffffffffffffffffff1602179055506001600260003373ffffffffffffffffffffffffffffffffffffffff1673ffffffffffffffffffffffffffffffffffffffff16815260200190815260200160002060006101000a81548160ff0219169083151502179055505b6103836040518060400160405280600d81526020017f257320686173207761766564210000000000000000000000000000000000000081525033610469565b565b60006103c86040518060400160405280601781526020017f5765206861766520256420746f74616c20776176657321000000000000000000815250600054610505565b600054905090565b610466816040516024016103e49190610789565b6040516020818303038152906040527f41304fac000000000000000000000000000000000000000000000000000000007bffffffffffffffffffffffffffffffffffffffffffffffffffffffff19166020820180517bffffffffffffffffffffffffffffffffffffffffffffffffffffffff83818316178352505050506105a1565b50565b610501828260405160240161047f9291906107ab565b6040516020818303038152906040527f319af333000000000000000000000000000000000000000000000000000000007bffffffffffffffffffffffffffffffffffffffffffffffffffffffff19166020820180517bffffffffffffffffffffffffffffffffffffffffffffffffffffffff83818316178352505050506105a1565b5050565b61059d828260405160240161051b9291906107db565b6040516020818303038152906040527f9710a9d0000000000000000000000000000000000000000000000000000000007bffffffffffffffffffffffffffffffffffffffffffffffffffffffff19166020820180517bffffffffffffffffffffffffffffffffffffffffffffffffffffffff83818316178352505050506105a1565b5050565b60008151905060006a636f6e736f6c652e6c6f679050602083016000808483855afa5050505050565b6000813590506105d98161098c565b92915050565b6000813590506105ee816109a3565b92915050565b60006020828403121561060657600080fd5b6000610614848285016105ca565b91505092915050565b60006020828403121561062f57600080fd5b600061063d848285016105df565b91505092915050565b6000610652838361065e565b60208301905092915050565b610667816108d1565b82525050565b610676816108d1565b82525050565b600061068782610836565b6106918185610859565b935061069c83610826565b8060005b838110156106cd5781516106b48882610646565b97506106bf8361084c565b9250506001810190506106a0565b5085935050505092915050565b6106e3816108e3565b82525050565b60006106f482610841565b6106fe818561086a565b935061070e818560208601610919565b6107178161097b565b840191505092915050565b61072b8161090f565b82525050565b6000602082019050610746600083018461066d565b92915050565b60006020820190508181036000830152610766818461067c565b905092915050565b600060208201905061078360008301846106da565b92915050565b600060208201905081810360008301526107a381846106e9565b905092915050565b600060408201905081810360008301526107c581856106e9565b90506107d4602083018461066d565b9392505050565b600060408201905081810360008301526107f581856106e9565b90506108046020830184610722565b9392505050565b60006020820190506108206000830184610722565b92915050565b6000819050602082019050919050565b600081519050919050565b600081519050919050565b6000602082019050919050565b600082825260208201905092915050565b600082825260208201905092915050565b60006108868261090f565b91506108918361090f565b9250827fffffffffffffffffffffffffffffffffffffffffffffffffffffffffffffffff038211156108c6576108c561094c565b5b828201905092915050565b60006108dc826108ef565b9050919050565b60008115159050919050565b600073ffffffffffffffffffffffffffffffffffffffff82169050919050565b6000819050919050565b60005b8381101561093757808201518184015260208101905061091c565b83811115610946576000848401525b50505050565b7f4e487b7100000000000000000000000000000000000000000000000000000000600052601160045260246000fd5b6000601f19601f8301169050919050565b610995816108d1565b81146109a057600080fd5b50565b6109ac8161090f565b81146109b757600080fd5b5056fea2646970667358221220314ce9aa8858c2d5c19cc5d7445fec824db6a7330af3946da9e88ef55296fee264736f6c63430008040033596f20796f2c204920616d206120636f6e747261637420616e64204920616d20736d617274",
  "linkReferences": {},
  "deployedLinkReferences": {}
}